{"abi":[{"type":"constructor","inputs":[{"name":"weth","type":"address","internalType":"address"}],"stateMutability":"nonpayable"},{"type":"function","name":"createPool","inputs":[{"name":"tokenAddress","type":"address","internalType":"address"}],"outputs":[{"name":"","type":"address","internalType":"address"}],"stateMutability":"nonpayable"},{"type":"function","name":"getPool","inputs":[{"name":"tokenAddress","type":"address","internalType":"address"}],"outputs":[{"name":"","type":"address","internalType":"address"}],"stateMutability":"view"},{"type":"function","name":"getToken","inputs":[{"name":"pool","type":"address","internalType":"address"}],"outputs":[{"name":"","type":"address","internalType":"address"}],"stateMutability":"view"},{"type":"function","name":"i_weth","inputs":[],"outputs":[{"name":"","type":"address","internalType":"address"}],"stateMutability":"view"},{"type":"event","name":"PoolCreated","inputs":[{"name":"tokenAddress","type":"address","indexed":false,"internalType":"address"},{"name":"poolAddress","type":"address","indexed":false,"internalType":"address"}],"anonymous":false},{"type":"error","name":"PoolFactory__PoolAlreadyExists","inputs":[{"name":"tokenAddress","type":"address","internalType":"address"}]},{"type":"error","name":"PoolFactory__PoolDoesNotExist","inputs":[{"name":"tokenAddress","type":"address","internalType":"address"}]}],"bytecode":{"object":"0x60a060405234801561001057600080fd5b506040516124a73803806124a783398101604081905261002f91610040565b6001600160a01b0316608052610070565b60006020828403121561005257600080fd5b81516001600160a01b038116811461006957600080fd5b9392505050565b60805161241661009160003960008181605601526101aa01526124166000f3fe608060405234801561001057600080fd5b506004361061004c5760003560e01c80634dbe7e921461005157806359770438146100945780639049f9d2146100c0578063bbe4f6db146100d3575b600080fd5b6100787f000000000000000000000000000000000000000000000000000000000000000081565b6040516001600160a01b03909116815260200160405180910390f35b6100786100a2366004610291565b6001600160a01b039081166000908152600160205260409020541690565b6100786100ce366004610291565b6100ff565b6100786100e1366004610291565b6001600160a01b039081166000908152602081905260409020541690565b6001600160a01b0381811660009081526020819052604081205490911615610149576040516350df0b2b60e01b81526001600160a01b038316600482015260240160405180910390fd5b604080516602a16a9bbb0b8160cd1b60208201526104c560f41b60278201528151600981830301815260298201835261747360f01b60498301526213141560ea1b604b8301528251602e818403018152604e909201928390529160009085907f000000000000000000000000000000000000000000000000000000000000000090859085906101d790610284565b6101e49493929190610307565b604051809103906000f080158015610200573d6000803e3d6000fd5b506001600160a01b0386811660008181526020818152604080832080549587166001600160a01b0319968716811790915580845260018352928190208054909516841790945583519283528201529192507f4f2ce4e40f623ca765fc0167a25cb7842ceaafb8d82d3dec26ca0d0e0d2d4896910160405180910390a1949350505050565b6120908061035183390190565b6000602082840312156102a357600080fd5b81356001600160a01b03811681146102ba57600080fd5b9392505050565b6000815180845260005b818110156102e7576020818501810151868301820152016102cb565b506000602082860101526020601f19601f83011685010191505092915050565b6001600160a01b03858116825284166020820152608060408201819052600090610333908301856102c1565b828103606084015261034581856102c1565b97965050505050505056fe60c06040523480156200001157600080fd5b506040516200209038038062002090833981016040819052620000349162000152565b8181600362000044838262000271565b50600462000053828262000271565b5050506001600160a01b0392831660805250501660a0526200033d565b80516001600160a01b03811681146200008857600080fd5b919050565b634e487b7160e01b600052604160045260246000fd5b600082601f830112620000b557600080fd5b81516001600160401b0380821115620000d257620000d26200008d565b604051601f8301601f19908116603f01168101908282118183101715620000fd57620000fd6200008d565b816040528381526020925086838588010111156200011a57600080fd5b600091505b838210156200013e57858201830151818301840152908201906200011f565b600093810190920192909252949350505050565b600080600080608085870312156200016957600080fd5b620001748562000070565b9350620001846020860162000070565b60408601519093506001600160401b0380821115620001a257600080fd5b620001b088838901620000a3565b93506060870151915080821115620001c757600080fd5b50620001d687828801620000a3565b91505092959194509250565b600181811c90821680620001f757607f821691505b6020821081036200021857634e487b7160e01b600052602260045260246000fd5b50919050565b601f8211156200026c57600081815260208120601f850160051c81016020861015620002475750805b601f850160051c820191505b81811015620002685782815560010162000253565b5050505b505050565b81516001600160401b038111156200028d576200028d6200008d565b620002a5816200029e8454620001e2565b846200021e565b602080601f831160018114620002dd5760008415620002c45750858301515b600019600386901b1c1916600185901b17855562000268565b600085815260208120601f198616915b828110156200030e57888601518255948401946001909101908401620002ed565b50858210156200032d5787850151600019600388901b60f8161c191681555b5050505050600190811b01905550565b60805160a051611c8c62000404600039600081816102390152818161051a015281816107a9015281816109df01528181610b9801528181610cef01528181610e510152818161103401528181611171015281816113020152818161149201526115370152600081816101f7015281816102a10152818161059b015281816107130152818161095e01528181610af001528181610cbb01528181610ed101528181610fba015281816110f1015281816112ce0152818161145d01526115020152611c8c6000f3fe608060405234801561001057600080fd5b506004361061018e5760003560e01c80636b3c4779116100de578063a9059cbb11610097578063dd62ed3e11610071578063dd62ed3e14610374578063ecd3b649146103ad578063f4e1fc41146103c0578063ff792c96146103c857600080fd5b8063a9059cbb14610352578063b7e7fdcc14610365578063ced72f871461036d57600080fd5b80636b3c4779146102eb57806370a08231146102fe57806375dbac6c1461032757806385b294381461033a5780638fd782421461034257806395d89b411461034a57600080fd5b806323b872dd1161014b5780633f163cdf116101255780633f163cdf146102925780634dbe7e921461029c5780635a7fecc7146102c3578063674fb1b4146102d657600080fd5b806323b872dd1461025d5780632505c3d914610270578063313ce5671461028357600080fd5b806306fdde0314610193578063095ea7b3146101b1578063101e2c55146101d4578063107c279f146101f557806318160ddd1461022f57806321df0da714610237575b600080fd5b61019b6103db565b6040516101a891906119ef565b60405180910390f35b6101c46101bf366004611a3e565b61046d565b60405190151581526020016101a8565b6101e76101e2366004611a68565b610487565b6040519081526020016101a8565b7f00000000000000000000000000000000000000000000000000000000000000005b6040516001600160a01b0390911681526020016101a8565b6002546101e7565b7f0000000000000000000000000000000000000000000000000000000000000000610217565b6101c461026b366004611a94565b610649565b6101e761027e366004611ad0565b61066f565b604051601281526020016101a8565b633b9aca006101e7565b6102177f000000000000000000000000000000000000000000000000000000000000000081565b6101e76102d1366004611a68565b6108d0565b6102e96102e4366004611ad0565b610a46565b005b6101e76102f9366004611a68565b610d22565b6101e761030c366004611b02565b6001600160a01b031660009081526020819052604090205490565b6101e7610335366004611a68565b610dc3565b6101e7610f7c565b6101e7610f8c565b61019b610fe9565b6101c4610360366004611a3e565b610ff8565b6101e7611006565b60036101e7565b6101e7610382366004611b1d565b6001600160a01b03918216600090815260016020908152604080832093909416825291909152205490565b6101e76103bb366004611a68565b611063565b6103e86101e7565b6101e76103d6366004611a68565b6111d8565b6060600380546103ea90611b50565b80601f016020809104026020016040519081016040528092919081815260200182805461041690611b50565b80156104635780601f1061043857610100808354040283529160200191610463565b820191906000526020600020905b81548152906001019060200180831161044657829003601f168201915b5050505050905090565b60003361047b818585611274565b60019150505b92915050565b600081428110156104b3576040516327371c2760e11b8152600481018290526024015b60405180910390fd5b84806000036104d557604051632c9669e960e11b815260040160405180910390fd5b84806000036104f757604051632c9669e960e11b815260040160405180910390fd5b6040516370a0823160e01b815230600482015261060f9088906001600160a01b037f000000000000000000000000000000000000000000000000000000000000000016906370a08231906024015b602060405180830381865afa158015610562573d6000803e3d6000fd5b505050506040513d601f19601f820116820180604052508101906105869190611b8a565b6040516370a0823160e01b81523060048201527f00000000000000000000000000000000000000000000000000000000000000006001600160a01b0316906370a08231906024015b602060405180830381865afa1580156105eb573d6000803e3d6000fd5b505050506040513d601f19601f820116820180604052508101906102f99190611b8a565b93508584101561063557604051632f55eba360e11b8152600481018590526024016104aa565b61063f8785611286565b5050509392505050565b60003361065785828561132e565b6106628585856113ac565b60019150505b9392505050565b60008142811015610696576040516327371c2760e11b8152600481018290526024016104aa565b85806000036106b857604051632c9669e960e11b815260040160405180910390fd5b633b9aca008710156106ea57604051630769ac0560e21b8152633b9aca006004820152602481018890526044016104aa565b60006106f560025490565b11156108b7576040516370a0823160e01b81523060048201526000907f00000000000000000000000000000000000000000000000000000000000000006001600160a01b0316906370a0823190602401602060405180830381865afa158015610762573d6000803e3d6000fd5b505050506040513d601f19601f820116820180604052508101906107869190611b8a565b6040516370a0823160e01b81523060048201529091506000906001600160a01b037f000000000000000000000000000000000000000000000000000000000000000016906370a0823190602401602060405180830381865afa1580156107f0573d6000803e3d6000fd5b505050506040513d601f19601f820116820180604052508101906108149190611b8a565b9050600082610823838c611bb9565b61082d9190611bd0565b90508088101561085a576040516321d4d9c560e21b815260048101899052602481018290526044016104aa565b82610863610f7c565b61086d908c611bb9565b6108779190611bd0565b9550888610156108a4576040516339d8595160e11b8152600481018a9052602481018790526044016104aa565b6108af8a828861140b565b5050506108c6565b6108c287868961140b565b8692505b5050949350505050565b600081428110156108f7576040516327371c2760e11b8152600481018290526024016104aa565b838060000361091957604051632c9669e960e11b815260040160405180910390fd5b858060000361093b57604051632c9669e960e11b815260040160405180910390fd5b6040516370a0823160e01b8152306004820152610a169088906001600160a01b037f000000000000000000000000000000000000000000000000000000000000000016906370a08231906024015b602060405180830381865afa1580156109a6573d6000803e3d6000fd5b505050506040513d601f19601f820116820180604052508101906109ca9190611b8a565b6040516370a0823160e01b81523060048201527f00000000000000000000000000000000000000000000000000000000000000006001600160a01b0316906370a08231906024016105ce565b935085841015610a3c57604051637c2ac46d60e11b8152600481018790526024016104aa565b61063f87856114ba565b8042811015610a6b576040516327371c2760e11b8152600481018290526024016104aa565b8480600003610a8d57604051632c9669e960e11b815260040160405180910390fd5b8480600003610aaf57604051632c9669e960e11b815260040160405180910390fd5b8480600003610ad157604051632c9669e960e11b815260040160405180910390fd5b6000610adb610f7c565b6040516370a0823160e01b81523060048201527f00000000000000000000000000000000000000000000000000000000000000006001600160a01b0316906370a0823190602401602060405180830381865afa158015610b3f573d6000803e3d6000fd5b505050506040513d601f19601f82011682018060405250810190610b639190611b8a565b610b6d908b611bb9565b610b779190611bd0565b90506000610b83610f7c565b6040516370a0823160e01b81523060048201527f00000000000000000000000000000000000000000000000000000000000000006001600160a01b0316906370a0823190602401602060405180830381865afa158015610be7573d6000803e3d6000fd5b505050506040513d601f19601f82011682018060405250810190610c0b9190611b8a565b610c15908c611bb9565b610c1f9190611bd0565b905088821015610c4557604051632f55eba360e11b8152600481018a90526024016104aa565b87811015610c6957604051637c2ac46d60e11b8152600481018990526024016104aa565b610c73338b61155e565b604080518381526020810183905233917f96cd817c6329656790ef8fba7675405193677d39619571282f5e21f3a98cd059910160405180910390a2610ce26001600160a01b037f0000000000000000000000000000000000000000000000000000000000000000163384611594565b610d166001600160a01b037f0000000000000000000000000000000000000000000000000000000000000000163383611594565b50505050505050505050565b60008380600003610d4657604051632c9669e960e11b815260040160405180910390fd5b8280600003610d6857604051632c9669e960e11b815260040160405180910390fd5b6000610d7760036103e8611bf2565b610d819088611bb9565b90506000610d8f8683611bb9565b9050600082610da06103e88a611bb9565b610daa9190611c05565b9050610db68183611bd0565b9998505050505050505050565b60008142811015610dea576040516327371c2760e11b8152600481018290526024016104aa565b8380600003610e0c57604051632c9669e960e11b815260040160405180910390fd5b8580600003610e2e57604051632c9669e960e11b815260040160405180910390fd5b6040516370a0823160e01b8152306004820152610f459088906001600160a01b037f000000000000000000000000000000000000000000000000000000000000000016906370a0823190602401602060405180830381865afa158015610e98573d6000803e3d6000fd5b505050506040513d601f19601f82011682018060405250810190610ebc9190611b8a565b6040516370a0823160e01b81523060048201527f00000000000000000000000000000000000000000000000000000000000000006001600160a01b0316906370a08231906024015b602060405180830381865afa158015610f21573d6000803e3d6000fd5b505050506040513d601f19601f820116820180604052508101906103d69190611b8a565b935085841115610f725760405163cf92ab6d60e01b815260048101859052602481018790526044016104aa565b61063f84886114ba565b6000610f8760025490565b905090565b6040516370a0823160e01b8152306004820152600090610f8790670de0b6b3a7640000906001600160a01b037f000000000000000000000000000000000000000000000000000000000000000016906370a0823190602401610989565b6060600480546103ea90611b50565b60003361047b8185856113ac565b6040516370a0823160e01b8152306004820152600090610f8790670de0b6b3a7640000906001600160a01b037f000000000000000000000000000000000000000000000000000000000000000016906370a0823190602401610545565b6000814281101561108a576040516327371c2760e11b8152600481018290526024016104aa565b84806000036110ac57604051632c9669e960e11b815260040160405180910390fd5b84806000036110ce57604051632c9669e960e11b815260040160405180910390fd5b6040516370a0823160e01b81523060048201526111a89088906001600160a01b037f000000000000000000000000000000000000000000000000000000000000000016906370a0823190602401602060405180830381865afa158015611138573d6000803e3d6000fd5b505050506040513d601f19601f8201168201806040525081019061115c9190611b8a565b6040516370a0823160e01b81523060048201527f00000000000000000000000000000000000000000000000000000000000000006001600160a01b0316906370a0823190602401610f04565b9350858411156111ce57604051632f55eba360e11b8152600481018890526024016104aa565b61063f8488611286565b600083806000036111fc57604051632c9669e960e11b815260040160405180910390fd5b828060000361121e57604051632c9669e960e11b815260040160405180910390fd5b60006103e861122d8888611bb9565b6112379190611bb9565b9050600061124860036103e8611bf2565b6112528988611bf2565b61125c9190611bb9565b90506112688183611bd0565b98975050505050505050565b61128183838360016115f3565b505050565b604080518281526020810184905233917f7a838780f54665d8b51c1be6c0c4575866ebb6b47b10a3c362ffde44727e50fb910160405180910390a26112f56001600160a01b037f0000000000000000000000000000000000000000000000000000000000000000163383611594565b61132a6001600160a01b037f0000000000000000000000000000000000000000000000000000000000000000163330856116c8565b5050565b6001600160a01b0383811660009081526001602090815260408083209386168352929052205460001981146113a6578181101561139757604051637dc7a0d960e11b81526001600160a01b038416600482015260248101829052604481018390526064016104aa565b6113a6848484840360006115f3565b50505050565b6001600160a01b0383166113d657604051634b637e8f60e11b8152600060048201526024016104aa565b6001600160a01b0382166114005760405163ec442f0560e01b8152600060048201526024016104aa565b611281838383611701565b611415338261182b565b604080518481526020810184905233917fac1d76749e5447b7b16f5ab61447e1bd502f3bb4807af3b28e620d1700a6ee45910160405180910390a26114856001600160a01b037f0000000000000000000000000000000000000000000000000000000000000000163330866116c8565b6112816001600160a01b037f0000000000000000000000000000000000000000000000000000000000000000163330856116c8565b604080518381526020810183905233917f41a451b37a1c59de18465135b11217962a16fc9f647e54601509e0db0476f9f1910160405180910390a261152a6001600160a01b037f0000000000000000000000000000000000000000000000000000000000000000163330856116c8565b61132a6001600160a01b037f0000000000000000000000000000000000000000000000000000000000000000163383611594565b6001600160a01b03821661158857604051634b637e8f60e11b8152600060048201526024016104aa565b61132a82600083611701565b6040516001600160a01b0383811660248301526044820183905261128191859182169063a9059cbb906064015b604051602081830303815290604052915060e01b6020820180516001600160e01b038381831617835250505050611861565b6001600160a01b03841661161d5760405163e602df0560e01b8152600060048201526024016104aa565b6001600160a01b03831661164757604051634a1406b160e11b8152600060048201526024016104aa565b6001600160a01b03808516600090815260016020908152604080832093871683529290522082905580156113a657826001600160a01b0316846001600160a01b03167f8c5be1e5ebec7d5bd14f71427d1e84f3dd0314c0f7b2291e5b200ac8c7c3b925846040516116ba91815260200190565b60405180910390a350505050565b6040516001600160a01b0384811660248301528381166044830152606482018390526113a69186918216906323b872dd906084016115c1565b6001600160a01b03831661172c5780600260008282546117219190611c05565b9091555061179e9050565b6001600160a01b0383166000908152602081905260409020548181101561177f5760405163391434e360e21b81526001600160a01b038516600482015260248101829052604481018390526064016104aa565b6001600160a01b03841660009081526020819052604090209082900390555b6001600160a01b0382166117ba576002805482900390556117d9565b6001600160a01b03821660009081526020819052604090208054820190555b816001600160a01b0316836001600160a01b03167fddf252ad1be2c89b69c2b068fc378daa952ba7f163c4a11628f55a4df523b3ef8360405161181e91815260200190565b60405180910390a3505050565b6001600160a01b0382166118555760405163ec442f0560e01b8152600060048201526024016104aa565b61132a60008383611701565b60006118766001600160a01b038416836118c4565b9050805160001415801561189b5750808060200190518101906118999190611c18565b155b1561128157604051635274afe760e01b81526001600160a01b03841660048201526024016104aa565b60606106688383600084600080856001600160a01b031684866040516118ea9190611c3a565b60006040518083038185875af1925050503d8060008114611927576040519150601f19603f3d011682016040523d82523d6000602084013e61192c565b606091505b509150915061193c868383611946565b9695505050505050565b60608261195b57611956826119a2565b610668565b815115801561197257506001600160a01b0384163b155b1561199b57604051639996b31560e01b81526001600160a01b03851660048201526024016104aa565b5080610668565b8051156119b25780518082602001fd5b604051630a12f52160e11b815260040160405180910390fd5b60005b838110156119e65781810151838201526020016119ce565b50506000910152565b6020815260008251806020840152611a0e8160408501602087016119cb565b601f01601f19169190910160400192915050565b80356001600160a01b0381168114611a3957600080fd5b919050565b60008060408385031215611a5157600080fd5b611a5a83611a22565b946020939093013593505050565b600080600060608486031215611a7d57600080fd5b505081359360208301359350604090920135919050565b600080600060608486031215611aa957600080fd5b611ab284611a22565b9250611ac060208501611a22565b9150604084013590509250925092565b60008060008060808587031215611ae657600080fd5b5050823594602084013594506040840135936060013592509050565b600060208284031215611b1457600080fd5b61066882611a22565b60008060408385031215611b3057600080fd5b611b3983611a22565b9150611b4760208401611a22565b90509250929050565b600181811c90821680611b6457607f821691505b602082108103611b8457634e487b7160e01b600052602260045260246000fd5b50919050565b600060208284031215611b9c57600080fd5b5051919050565b634e487b7160e01b600052601160045260246000fd5b808202811582820484141761048157610481611ba3565b600082611bed57634e487b7160e01b600052601260045260246000fd5b500490565b8181038181111561048157610481611ba3565b8082018082111561048157610481611ba3565b600060208284031215611c2a57600080fd5b8151801515811461066857600080fd5b60008251611c4c8184602087016119cb565b919091019291505056fea2646970667358221220c90d6b7698b0766c4cc4bbf318a10597bfd604617322abd574449e87278921b564736f6c63430008140033a2646970667358221220ea4e30b2b303370a658e97abca7f1e2b42fa826d41e0734bb0c9330d3929294864736f6c63430008140033","linkReferences":{}},"methodIdentifiers":{"createPool(address)":"9049f9d2","getPool(address)":"bbe4f6db","getToken(address)":"59770438","i_weth()":"4dbe7e92"},"id":47}