{"abi":[{"type":"function","name":"createPool","inputs":[{"name":"tokenAddress","type":"address","internalType":"address"}],"outputs":[{"name":"","type":"address","internalType":"address"}],"stateMutability":"nonpayable"},{"type":"function","name":"getPool","inputs":[{"name":"tokenAddress","type":"address","internalType":"address"}],"outputs":[{"name":"","type":"address","internalType":"address"}],"stateMutability":"view"},{"type":"error","name":"PoolFactory__PoolAlreadyExists","inputs":[{"name":"tokenAddress","type":"address","internalType":"address"}]}],"bytecode":{"object":"0x608060405234801561001057600080fd5b50610261806100206000396000f3fe608060405234801561001057600080fd5b50600436106100365760003560e01c80639049f9d21461003b578063bbe4f6db1461006a575b600080fd5b61004e610049366004610160565b610096565b6040516001600160a01b03909116815260200160405180910390f35b61004e610078366004610160565b6001600160a01b039081166000908152602081905260409020541690565b6001600160a01b03818116600090815260208190526040812054909116156100e0576040516350df0b2b60e01b81526001600160a01b038316600482015260240160405180910390fd5b60006040516100ee90610154565b604051809103906000f08015801561010a573d6000803e3d6000fd5b506001600160a01b0393841660008181526020818152604080832080549886166001600160a01b0319998a1681179091558352600190915290208054909516179093555090919050565b609b8061019183390190565b60006020828403121561017257600080fd5b81356001600160a01b038116811461018957600080fd5b939250505056fe6080604052348015600f57600080fd5b50607e80601d6000396000f3fe6080604052348015600f57600080fd5b506004361060285760003560e01c8063b7e7fdcc14602d575b600080fd5b670de0b6b3a764000060405190815260200160405180910390f3fea26469706673582212205af18371be001596a68f039708438d4533e0a473cb238e892c66a2a9fc19c90f64736f6c63430008140033a2646970667358221220e187110b050859e74680149feb517355d9e6ad624a82b05fdbb54c585e36e71a64736f6c63430008140033","linkReferences":{}},"methodIdentifiers":{"createPool(address)":"9049f9d2","getPool(address)":"bbe4f6db"},"id":51}