{"abi":[{"type":"constructor","inputs":[{"name":"thunderLoan","type":"address","internalType":"address"}],"stateMutability":"nonpayable"},{"type":"function","name":"executeOperation","inputs":[{"name":"token","type":"address","internalType":"address"},{"name":"amount","type":"uint256","internalType":"uint256"},{"name":"fee","type":"uint256","internalType":"uint256"},{"name":"initiator","type":"address","internalType":"address"},{"name":"","type":"bytes","internalType":"bytes"}],"outputs":[{"name":"","type":"bool","internalType":"bool"}],"stateMutability":"nonpayable"},{"type":"function","name":"getBalanceAfter","inputs":[],"outputs":[{"name":"","type":"uint256","internalType":"uint256"}],"stateMutability":"view"},{"type":"function","name":"getBalanceDuring","inputs":[],"outputs":[{"name":"","type":"uint256","internalType":"uint256"}],"stateMutability":"view"},{"type":"error","name":"MockFlashLoanReceiver__onlyOwner","inputs":[]},{"type":"error","name":"MockFlashLoanReceiver__onlyThunderLoan","inputs":[]}],"bytecode":{"object":"0x608060405234801561001057600080fd5b506040516104d63803806104d683398101604081905261002f91610065565b60008054336001600160a01b0319918216178255600180549091166001600160a01b039390931692909217909155600255610095565b60006020828403121561007757600080fd5b81516001600160a01b038116811461008e57600080fd5b9392505050565b610432806100a46000396000f3fe608060405234801561001057600080fd5b50600436106100415760003560e01c80631b11d0ff146100465780633127b73d1461006e578063bd418d2c14610080575b600080fd5b6100596100543660046102ed565b610088565b60405190151581526020015b60405180910390f35b6002545b604051908152602001610065565b600354610072565b6040516370a0823160e01b81523060048201526000906001600160a01b038816906370a0823190602401602060405180830381865afa1580156100cf573d6000803e3d6000fd5b505050506040513d601f19601f820116820180604052508101906100f39190610393565b6002556000546001600160a01b0385811691161461012457604051637d1f649560e01b815260040160405180910390fd5b6001546001600160a01b0316331461014f57604051632a8e373160e11b815260040160405180910390fd5b6001546001600160a01b038089169163095ea7b3911661016f888a6103ac565b6040516001600160e01b031960e085901b1681526001600160a01b03909216600483015260248201526044016020604051808303816000875af11580156101ba573d6000803e3d6000fd5b505050506040513d601f19601f820116820180604052508101906101de91906103d3565b506001546001600160a01b03166322867d78886101fb888a6103ac565b6040516001600160e01b031960e085901b1681526001600160a01b0390921660048301526024820152604401600060405180830381600087803b15801561024157600080fd5b505af1158015610255573d6000803e3d6000fd5b50506040516370a0823160e01b81523060048201526001600160a01b038a1692506370a082319150602401602060405180830381865afa15801561029d573d6000803e3d6000fd5b505050506040513d601f19601f820116820180604052508101906102c19190610393565b6003555060019695505050505050565b80356001600160a01b03811681146102e857600080fd5b919050565b60008060008060008060a0878903121561030657600080fd5b61030f876102d1565b9550602087013594506040870135935061032b606088016102d1565b9250608087013567ffffffffffffffff8082111561034857600080fd5b818901915089601f83011261035c57600080fd5b81358181111561036b57600080fd5b8a602082850101111561037d57600080fd5b6020830194508093505050509295509295509295565b6000602082840312156103a557600080fd5b5051919050565b808201808211156103cd57634e487b7160e01b600052601160045260246000fd5b92915050565b6000602082840312156103e557600080fd5b815180151581146103f557600080fd5b939250505056fea2646970667358221220258a96d7622cb1d39ab48a3eb263e7ae0dbc1c846b748caa0e5b10c3a23eea2c64736f6c63430008140033","linkReferences":{}},"methodIdentifiers":{"executeOperation(address,uint256,uint256,address,bytes)":"1b11d0ff","getBalanceAfter()":"bd418d2c","getBalanceDuring()":"3127b73d"},"id":50}