{"abi":[{"type":"function","name":"getPriceOfOnePoolTokenInWeth","inputs":[],"outputs":[{"name":"","type":"uint256","internalType":"uint256"}],"stateMutability":"pure"}],"bytecode":{"object":"0x6080604052348015600f57600080fd5b50607e80601d6000396000f3fe6080604052348015600f57600080fd5b506004361060285760003560e01c8063b7e7fdcc14602d575b600080fd5b670de0b6b3a764000060405190815260200160405180910390f3fea26469706673582212205af18371be001596a68f039708438d4533e0a473cb238e892c66a2a9fc19c90f64736f6c63430008140033","linkReferences":{}},"methodIdentifiers":{"getPriceOfOnePoolTokenInWeth()":"b7e7fdcc"},"id":52}